:100000000C9462000C948A000C948A000C948A0070
:100010000C948A000C948A000C948A000C948A0038
:100020000C948A000C948C000C948A000C948A0026
:100030000C948A000C948A000C948A000C948A0018
:100040000C9471030C948A000C94C7040C948A00DD
:100050000C948A000C948A000C948A000C948A00F8
:100060000C948A000C948A000000000024002700F1
:100070002A0000000000250028002B0000000000DE
:1000800023002600290004040404040404040202DA
:100090000202020203030303030301020408102007
:1000A0004080010204081020010204081020000012
:1000B0000007000201000003040600000000000029
:1000C00000004C0611241FBECFEFD8E0DEBFCDBF2D
:1000D00011E0A0E0B1E0E0E9FEE002C005900D9281
:1000E000A631B107D9F713E0A6E1B1E001C01D9236
:1000F000AF3DB107E1F710E0C4ECD0E004C02297B7
:10010000FE010E944207C23CD107C9F70E946A0360
:100110000C9446070C94000078941F920F920FB62F
:100120000F921124DF92EF92FF920F931F932F9360
:100130003F934F935F936F937F938F939F93AF936F
:10014000BF93CF93DF93EF93FF93809170008E7FE7
:1001500080937000A0911A03B0911B0310911C03AF
:10016000012F0095612F70E060957095C09101019D
:10017000D091020140911803509119032FE730E00C
:10018000DD249AE2E92E8AE2F82E4115510509F0A4
:100190002BC02332310508F44FC08C9180238C93FF
:1001A00080E09E2D9A95F1F78F5F8B30D1F7235227
:1001B00030408C91812B8C938F2D8A95F1F7F89498
:1001C0000C9006220C928BE000C09DE000009A95F6
:1001D000E9F70C9006220894D79408F4012A0C92AF
:1001E0008A9599F7789422C02B30310528F45093E2
:1001F00019034093180324C02B503040FA01EB5EE2
:10020000FE4F8081F8940C9006220C929BE000C077
:10021000EDE00000EA95E9F70C9006220894879536
:1002200008F4012A0C929A9599F778944F5F5F4FE2
:10023000C417D50708F0A9CF10921903109218031C
:1002400080917000816080937000FF91EF91DF9149
:10025000CF91BF91AF919F918F917F916F915F915E
:100260004F913F912F911F910F91FF90EF90DF9051
:100270000F900FBE0F901F90189581E08093170389
:1002800080910001482F50E0FA01EA57FF4FE491B6
:10029000F0E0EE0FFF1FEE58FF4F259134913093A1
:1002A0001B0320931A0346565F4FFA0194919093D3
:1002B0001C0361E00E945A04E0E7F0E08081816065
:1002C000808308956093000108951816190664F05C
:1002D000809170008E7F80937000109217031092AF
:1002E000020110920101089522E08130920714F07A
:1002F00080E092E0909302018093010180911703C6
:10030000882311F40E943D010895CB010E946501EC
:1003100008951F93CF93DF93EC01162F809117035D
:10032000882311F40E943D01CE0101978050924034
:10033000A0F42091010130910201CE014C2F892FB0
:10034000C217D30718F4C901422F892F4093010126
:1003500080930201CB5EDE4F1883DF91CF911F9116
:100360000895CB01642F0E9489010895CF93DF93F4
:100370008CEC93E00E94FD05883008F04EC05AC016
:100380008CEC93E00E94110690931E0380931D0352
:10039000892B09F042C08CEC93E00E9411069093E7
:1003A000200380931F038CEC93E00E9411060197B9
:1003B00090932203809321038CEC93E00E9411061A
:1003C000019790932403809323038CEC93E00E9485
:1003D0001106019790932603809325038CEC93E0FC
:1003E0000E941106019790932803809327038CECB9
:1003F00093E00E941106019790932A0380932903AA
:100400008CEC93E00E941106019790932C0380934B
:100410002B0310920401109203018091030190912B
:100420000401019709F4ACCF81E090E090930401BE
:1004300080930301C0911F03D0912003D093060144
:10044000C0930501809121039091220390933E0374
:1004500080933D038091230390912403909336036E
:100460008093350380912503909126039093380360
:1004700080933703809127039091280390933A0348
:10048000809339038091290390912A0390933C0330
:1004900080933B0380912B0390912C0390932E0328
:1004A00080932D0380589F4F90930A0180930901F8
:1004B0008091070190910801C130D10561F5892B28
:1004C000C9F486E193E062E070E040E80E94B10187
:1004D00086E193E063E070E040E00E94B10186E1D4
:1004E00093E064E070E040E00E94B101D093080125
:1004F000C093070186E193E061E070E040913D0325
:100500000E94B10186E193E062E070E04091090150
:100510000E94B1019BC0019759F486E193E061E02C
:1005200070E047ED0E94B10110920801109207019E
:100530000E94B90320912F03309130034091310381
:1005400050913203621B730B840B950B20912D038A
:1005500030912E03442737FD4095542F2617370737
:100560004807590708F072C00E94B90360932F032F
:10057000709330038093310390933203809133035F
:1005800090913403892B31F080912D0390912E03AB
:10059000892BA1F586E193E062E070E0409137039A
:1005A0000E94B101609137037091380385E00E9489
:1005B000010486E193E063E070E0409139030E941A
:1005C000B1016091390370913A0386E00E94010401
:1005D00086E193E064E070E040913B030E94B1014A
:1005E00060913B0370913C0389E00E94010481E02B
:1005F00090E0909334038093330328C086E193E026
:1006000062E070E040E00E94B10185E060E070E0EF
:100610000E94010486E193E063E070E040E00E9404
:10062000B10186E060E070E00E94010486E193E0A1
:1006300064E070E040E00E94B10189E060E070E0B9
:100640000E94010410923403109233036091350329
:100650007091360383E00E940104DF91CF910895E9
:100660000F931F9306E113E0C8016BE00E94620143
:10067000C80164E070E00E948501C80161E070E09B
:1006800040E00E94B101C80162E070E040E00E94D9
:10069000B101C80163E070E040E00E94B101C8010F
:1006A00064E070E040E00E94B1018CEC93E040E82F
:1006B00055E260E070E00E94040581E090E09093D4
:1006C00004018093030183E061E00E945A041F91BA
:1006D0000F9108950E94C7030E9430030E94B60143
:1006E000FDCF1F920F920FB60F9211242F933F93BD
:1006F0008F939F93AF93BF93809143039091440353
:10070000A0914503B0914603309147030196A11D86
:10071000B11D232F2D5F2D3720F02D570196A11DE0
:10072000B11D209347038093430390934403A09308
:100730004503B093460380913F0390914003A091FD
:100740004103B09142030196A11DB11D80933F0367
:1007500090934003A0934103B0934203BF91AF91A4
:100760009F918F913F912F910F900FBE0F901F90EF
:1007700018958FB7F894209143033091440340912A
:100780004503509146038FBFB901CA01089578947B
:1007900084B5826084BD84B5816084BD85B5826086
:1007A00085BD85B5816085BDEEE6F0E08081816024
:1007B0008083E1E8F0E080818260808380818160D5
:1007C0008083E0E8F0E0808181608083E1EBF0E00D
:1007D000808184608083E0EBF0E0808181608083B1
:1007E000EAE7F0E08081846080838081826080839A
:1007F0008081816080838081806880831092C100C5
:1008000008951F93CF93DF93182FEB0161E00E94AF
:100810005A04E12FF0E0E255FF4F8491833051F408
:1008200080918000806880938000D0938900C0937D
:1008300088003CC0843051F48091800080628093B5
:100840008000D0938B00C0938A0030C0813039F48F
:10085000209729F184B5806884BDC7BD27C0823048
:1008600039F42097E1F084B5806284BDC8BD1EC014
:10087000863041F48091B00080688093B000C093CE
:10088000B30014C0873041F48091B000806280933F
:10089000B000C093B4000AC0C038D1051CF4812F49
:1008A00060E002C0812F61E00E947A04DF91CF9165
:1008B0001F910895282F30E0C90186569F4FFC01F3
:1008C00094912A573F4FF9018491882391F0E82FA2
:1008D000F0E0EE0FFF1FE859FF4FA591B49166239A
:1008E00029F48C91909589238C9308958C91892B70
:1008F0008C930895482F50E0CA0182559F4FFC0108
:100900002491CA0186569F4FFC0194914A575F4F2C
:10091000FA0134913323D1F1222331F1233021F430
:10092000809180008F7705C0243031F48091800061
:100930008F7D8093800018C0213019F484B58F77A3
:1009400004C0223021F484B58F7D84BD0DC02630D3
:1009500021F48091B0008F7705C0273029F4809171
:10096000B0008F7D8093B000E32FF0E0EE0FFF1F0B
:10097000EE58FF4FA591B491662329F48C91909580
:1009800089238C9308958C91892B8C9308951F92C1
:100990000F920FB60F9211242F933F934F935F93B3
:1009A0006F937F938F939F93AF93BF93EF93FF9337
:1009B0004091C600E091C803F091C903CF010196B0
:1009C00060E870E00E94DC069C018091CA0390916F
:1009D000CB032817390739F0E85BFC4F408330938D
:1009E000C9032093C803FF91EF91BF91AF919F91ED
:1009F0008F917F916F915F914F913F912F910F90C8
:100A00000FBE0F901F9018955F926F927F928F92FA
:100A10009F92AF92BF92CF92DF92EF92FF920F938D
:100A20001F93CF93DF93EC013A014B01413482E4F1
:100A300058078FE0680780E078070CF07FC060E817
:100A400074E88EE190E0A40193010E941107215007
:100A5000304040405040CA01B90122E030E040E05F
:100A600050E00E94110759016A01A60195012095E5
:100A700030954095509594E0220F331F441F551F29
:100A80009A95D1F760E074E284EF90E00E9411073C
:100A9000CA01B9012FEF30E040E050E00E94BD06EE
:100AA000A40193010E941107C90181509F4F18169C
:100AB00019061CF4522E5A9403C055245394521A0A
:100AC00060E079E08DE390E0A40193010E941107BA
:100AD0002150304040405040CA01B90122E030E08E
:100AE00040E050E00E9411072095309540955095C8
:100AF00083E0220F331F441F551F8A95D1F760E012
:100B000074E284EF90E00E941107CA01B9012FEF4F
:100B100030E040E050E00E94BD06A40193010E9435
:100B20001107C90181509F4F181619061CF4822F16
:100B3000815002C081E0821B851500F5E885F985AA
:100B400081E090E00A8802C0880F991F0A94E2F7BA
:100B5000808360E079E08DE390E0A40193010E943E
:100B600011072150304040405040CA01B90122E0F5
:100B700030E040E050E00E94110704C0E885F985AC
:100B800010829501EC81FD813083EE81FF8120830D
:100B9000EA85FB85208141E050E0CA010E8402C055
:100BA000880F991F0A94E2F7282B2083EA85FB859A
:100BB0002081CA010F8402C0880F991F0A94E2F7AE
:100BC000282B2083EA85FB858081088802C0440F9A
:100BD000551F0A94E2F7842B8083DF91CF911F91F8
:100BE0000F91FF90EF90DF90CF90BF90AF909F90CC
:100BF0008F907F906F905F900895DC011296ED9139
:100C0000FC911397E058FF4F8191919180589F4F2D
:100C100020813181821B930B60E870E00E94DC062A
:100C20000895CF93DF93DC011296ED91FC91139719
:100C3000EF01CE57DF4F48815981E058FF4F808147
:100C40009181E058F0408417950719F42FEF3FEF9A
:100C50000CC0E40FF51F2081CA01019660E870E026
:100C60000E94DC069983888330E0C901DF91CF912F
:100C70000895FC01A085B18521898C9190E0022E18
:100C800002C0959587950A94E2F780FFF6CF048419
:100C9000F585E02D608308958FE091E09093CD037A
:100CA0008093CC0388E493E09093CF038093CE03AA
:100CB00085EC90E09093D1038093D00384EC90E096
:100CC0009093D3038093D20380EC90E09093D5036C
:100CD0008093D40381EC90E09093D7038093D60364
:100CE00086EC90E09093D9038093D80384E08093BE
:100CF000DA0383E08093DB0387E08093DC0385E005
:100D00008093DD0381E08093DE0308950F931F93AA
:100D1000CF93DF938C01EB0109C02196D801ED91AF
:100D2000FC910190F081E02DC8010995688166234E
:100D3000A1F7DF91CF911F910F910895EF92FF924C
:100D40000F931F93CF93DF938C017B01EA010CC0BB
:100D5000D7016D917D01D801ED91FC910190F08159
:100D6000E02DC80109952197209791F7DF91CF9148
:100D70001F910F91FF90EF900895629FD001739F94
:100D8000F001829FE00DF11D649FE00DF11D929F27
:100D9000F00D839FF00D749FF00D659FF00D992766
:100DA000729FB00DE11DF91F639FB00DE11DF91F8A
:100DB000BD01CF011124089597FB092E07260AD003
:100DC00077FD04D049D006D000201AF470956195C3
:100DD0007F4F0895F6F7909581959F4F0895A1E272
:100DE0001A2EAA1BBB1BFD010DC0AA1FBB1FEE1FA5
:100DF000FF1FA217B307E407F50720F0A21BB30BF0
:100E0000E40BF50B661F771F881F991F1A9469F76B
:100E100060957095809590959B01AC01BD01CF01C7
:100E2000089597FB092E05260ED057FD04D0D7DF75
:100E30000AD0001C38F450954095309521953F4FCD
:100E40004F4F5F4F0895F6F7909580957095619597
:100E50007F4F8F4F9F4F0895AA1BBB1B51E107C0C7
:100E6000AA1FBB1FA617B70710F0A61BB70B881F3A
:100E7000991F5A95A9F780959095BC01CD010895C9
:100E8000EE0FFF1F0590F491E02D0994F894FFCF29
:100E90000310000100010001008000000000003983
:060EA0000686069E060016
:00000001FF
